:030000000220409B
:20200000A5E5E0A523FF00000000000000000000000000000000000000000000FFFFFFFF93
:0A2020005354455050455242490008
:202040008034D2993099FBC299F59922309804C298E5992285837F85827ED083D082C0E07B
:20206000E493A36004114280F7D0E0C082C083857E82857F832211545354455050455242EB
:202080004920696E6372656D656E74616C3A204163696F6E61206D6F746F722064652070D6
:2020A0006173736F202831362F30352F32303139290A0D001154557365206173207465630A
:2020C0006C6173204520652044207061726120696E6372656D656E746172206F206163691A
:2020E0006F6E616D656E746F2070617261206120657371756572646120652061206469725B
:20210000656974610A0D00115428455343207061726120656E636572726172290A0D009097
:2021200040037480F0757A50E4114C606954DFB445331142F5F0B57A0DE579B41F00405695
:202140009418F5798050E57AB450087579F785F07A8043E579B4E00050062418F5798036EB
:20216000757A508031B444091142F5F0B57AD780C8B41B22E4904001F0F4904002F0115437
:202180000A0D457865637563616F20636F6E636C756964610022E57AB4450590222C803418
:2021A000B44405902230802CB45002212811544572726F20666174616C212056656C6F63E6
:2021C000696461646520696E6578697374656E74650080A0757D04E493C083C08290400155
:2021E000F0F4F590904002F0D082D08385797C757BFA0000000000000000000000000000AB
:202200000000000000000000000000000000000000000000000000000000000000000000BE
:14222000D57BCFD57CC9A3D57DAD2128010204080804020168
:00000001FF
